{
  "contractName": "Chromium",
  "abi": [
    {
      "inputs": [
        {
          "internalType": "address",
          "name": "_oracle",
          "type": "address"
        },
        {
          "internalType": "address",
          "name": "_cblt_token",
          "type": "address"
        }
      ],
      "stateMutability": "nonpayable",
      "type": "constructor"
    },
    {
      "anonymous": false,
      "inputs": [
        {
          "indexed": true,
          "internalType": "address",
          "name": "_from",
          "type": "address"
        },
        {
          "indexed": false,
          "internalType": "address",
          "name": "_fromToken",
          "type": "address"
        },
        {
          "indexed": false,
          "internalType": "uint256",
          "name": "_fromAmount",
          "type": "uint256"
        },
        {
          "indexed": false,
          "internalType": "uint256",
          "name": "_cbltAmount",
          "type": "uint256"
        }
      ],
      "name": "ChromiumTrade",
      "type": "event"
    },
    {
      "anonymous": false,
      "inputs": [
        {
          "indexed": false,
          "internalType": "address",
          "name": "_previousOwner",
          "type": "address"
        },
        {
          "indexed": true,
          "internalType": "address",
          "name": "_newOwner",
          "type": "address"
        }
      ],
      "name": "OwnershipTransferred",
      "type": "event"
    },
    {
      "inputs": [],
      "name": "_owner",
      "outputs": [
        {
          "internalType": "address",
          "name": "",
          "type": "address"
        }
      ],
      "stateMutability": "view",
      "type": "function",
      "constant": true
    },
    {
      "inputs": [],
      "name": "isOwner",
      "outputs": [
        {
          "internalType": "bool",
          "name": "",
          "type": "bool"
        }
      ],
      "stateMutability": "view",
      "type": "function",
      "constant": true
    },
    {
      "inputs": [
        {
          "internalType": "contract IERC20",
          "name": "",
          "type": "address"
        }
      ],
      "name": "liquidityAmount",
      "outputs": [
        {
          "internalType": "uint256",
          "name": "",
          "type": "uint256"
        }
      ],
      "stateMutability": "view",
      "type": "function",
      "constant": true
    },
    {
      "inputs": [
        {
          "internalType": "address",
          "name": "_newOwner",
          "type": "address"
        }
      ],
      "name": "transferOwnership",
      "outputs": [],
      "stateMutability": "nonpayable",
      "type": "function"
    },
    {
      "stateMutability": "payable",
      "type": "receive",
      "payable": true
    },
    {
      "inputs": [
        {
          "internalType": "address",
          "name": "_oracle",
          "type": "address"
        }
      ],
      "name": "setOracle",
      "outputs": [],
      "stateMutability": "nonpayable",
      "type": "function"
    },
    {
      "inputs": [
        {
          "internalType": "address",
          "name": "_cblt",
          "type": "address"
        }
      ],
      "name": "setCbltToken",
      "outputs": [],
      "stateMutability": "nonpayable",
      "type": "function"
    },
    {
      "inputs": [
        {
          "internalType": "contract IERC20",
          "name": "fromToken",
          "type": "address"
        },
        {
          "internalType": "contract IERC20",
          "name": "destToken",
          "type": "address"
        },
        {
          "internalType": "uint256",
          "name": "amount",
          "type": "uint256"
        },
        {
          "internalType": "uint256",
          "name": "parts",
          "type": "uint256"
        },
        {
          "internalType": "uint256",
          "name": "featureFlags",
          "type": "uint256"
        }
      ],
      "name": "getExpectedReturn",
      "outputs": [
        {
          "internalType": "uint256",
          "name": "returnAmount",
          "type": "uint256"
        },
        {
          "internalType": "uint256[]",
          "name": "distribution",
          "type": "uint256[]"
        }
      ],
      "stateMutability": "view",
      "type": "function",
      "constant": true
    },
    {
      "inputs": [
        {
          "internalType": "contract IERC20",
          "name": "fromToken",
          "type": "address"
        },
        {
          "internalType": "contract IERC20",
          "name": "destToken",
          "type": "address"
        },
        {
          "internalType": "uint256",
          "name": "amount",
          "type": "uint256"
        }
      ],
      "name": "getCbltExchangeRate",
      "outputs": [
        {
          "internalType": "uint256",
          "name": "returnAmount",
          "type": "uint256"
        }
      ],
      "stateMutability": "view",
      "type": "function",
      "constant": true
    },
    {
      "inputs": [
        {
          "internalType": "contract IERC20",
          "name": "fromToken",
          "type": "address"
        },
        {
          "internalType": "uint256",
          "name": "amount",
          "type": "uint256"
        }
      ],
      "name": "swapForCblt",
      "outputs": [],
      "stateMutability": "payable",
      "type": "function",
      "payable": true
    },
    {
      "inputs": [
        {
          "internalType": "contract IERC20",
          "name": "destToken",
          "type": "address"
        },
        {
          "internalType": "uint256",
          "name": "amountOfCblt",
          "type": "uint256"
        }
      ],
      "name": "swapCbltForToken",
      "outputs": [],
      "stateMutability": "payable",
      "type": "function",
      "payable": true
    },
    {
      "inputs": [
        {
          "internalType": "contract IERC20",
          "name": "fromToken",
          "type": "address"
        },
        {
          "internalType": "contract IERC20",
          "name": "destToken",
          "type": "address"
        },
        {
          "internalType": "uint256",
          "name": "amount",
          "type": "uint256"
        }
      ],
      "name": "swapTokenForToken",
      "outputs": [],
      "stateMutability": "payable",
      "type": "function",
      "payable": true
    }
  ],
  "bytecode": "0x608060405234801561001057600080fd5b50604051612e0b380380612e0b8339818101604052604081101561003357600080fd5b810190808051906020019092919080519060200190929190505050336000806101000a81548173ffffffffffffffffffffffffffffffffffffffff021916908373ffffffffffffffffffffffffffffffffffffffff16021790555081600260006101000a81548173ffffffffffffffffffffffffffffffffffffffff021916908373ffffffffffffffffffffffffffffffffffffffff16021790555080600360006101000a81548173ffffffffffffffffffffffffffffffffffffffff021916908373ffffffffffffffffffffffffffffffffffffffff1602179055505050612cea806101216000396000f3fe6080604052600436106100a05760003560e01c806396674ea41161006457806396674ea4146102c857806399195a3714610319578063a5b0f822146103a8578063a85eefec146103f6578063b2bdfa7b14610464578063f2fde38b146104a5576100a7565b8063085e2c5b146100ac57806335e344f2146101975780637153bb33146101fc5780637adbf9731461024a5780638f32d59b1461029b576100a7565b366100a757005b600080fd5b3480156100b857600080fd5b50610139600480360360a08110156100cf57600080fd5b81019080803573ffffffffffffffffffffffffffffffffffffffff169060200190929190803573ffffffffffffffffffffffffffffffffffffffff1690602001909291908035906020019092919080359060200190929190803590602001909291905050506104f6565b6040518083815260200180602001828103825283818151815260200191508051906020019060200280838360005b83811015610182578082015181840152602081019050610167565b50505050905001935050505060405180910390f35b3480156101a357600080fd5b506101e6600480360360208110156101ba57600080fd5b81019080803573ffffffffffffffffffffffffffffffffffffffff169060200190929190505050610698565b6040518082815260200191505060405180910390f35b6102486004803603604081101561021257600080fd5b81019080803573ffffffffffffffffffffffffffffffffffffffff169060200190929190803590602001909291905050506106b0565b005b34801561025657600080fd5b506102996004803603602081101561026d57600080fd5b81019080803573ffffffffffffffffffffffffffffffffffffffff169060200190929190505050610d8b565b005b3480156102a757600080fd5b506102b0610e49565b60405180821515815260200191505060405180910390f35b3480156102d457600080fd5b50610317600480360360208110156102eb57600080fd5b81019080803573ffffffffffffffffffffffffffffffffffffffff169060200190929190505050610ea0565b005b34801561032557600080fd5b506103926004803603606081101561033c57600080fd5b81019080803573ffffffffffffffffffffffffffffffffffffffff169060200190929190803573ffffffffffffffffffffffffffffffffffffffff16906020019092919080359060200190929190505050610f5e565b6040518082815260200191505060405180910390f35b6103f4600480360360408110156103be57600080fd5b81019080803573ffffffffffffffffffffffffffffffffffffffff169060200190929190803590602001909291905050506110d5565b005b6104626004803603606081101561040c57600080fd5b81019080803573ffffffffffffffffffffffffffffffffffffffff169060200190929190803573ffffffffffffffffffffffffffffffffffffffff16906020019092919080359060200190929190505050611801565b005b34801561047057600080fd5b50610479611fb6565b604051808273ffffffffffffffffffffffffffffffffffffffff16815260200191505060405180910390f35b3480156104b157600080fd5b506104f4600480360360208110156104c857600080fd5b81019080803573ffffffffffffffffffffffffffffffffffffffff169060200190929190505050611fda565b005b6000606073c3037b2a1a9e9268025ff6d45fe7095436446d5273ffffffffffffffffffffffffffffffffffffffff1663085e2c5b88888888886040518663ffffffff1660e01b8152600401808673ffffffffffffffffffffffffffffffffffffffff1681526020018573ffffffffffffffffffffffffffffffffffffffff1681526020018481526020018381526020018281526020019550505050505060006040518083038186803b1580156105ab57600080fd5b505afa1580156105bf573d6000803e3d6000fd5b505050506040513d6000823e3d601f19601f8201168201806040525060408110156105e957600080fd5b81019080805190602001909291908051604051939291908464010000000082111561061357600080fd5b8382019150602082018581111561062957600080fd5b825186602082028301116401000000008211171561064657600080fd5b8083526020830192505050908051906020019060200280838360005b8381101561067d578082015181840152602081019050610662565b50505050905001604052505050915091509550959350505050565b60016020528060005260406000206000915090505481565b6106ff333083600360009054906101000a900473ffffffffffffffffffffffffffffffffffffffff1673ffffffffffffffffffffffffffffffffffffffff16612115909392919063ffffffff16565b73eeeeeeeeeeeeeeeeeeeeeeeeeeeeeeeeeeeeeeee73ffffffffffffffffffffffffffffffffffffffff168273ffffffffffffffffffffffffffffffffffffffff161415610a65576000806000600260009054906101000a900473ffffffffffffffffffffffffffffffffffffffff1673ffffffffffffffffffffffffffffffffffffffff16633a7a2a06600360009054906101000a900473ffffffffffffffffffffffffffffffffffffffff16876040518363ffffffff1660e01b8152600401808373ffffffffffffffffffffffffffffffffffffffff1681526020018273ffffffffffffffffffffffffffffffffffffffff1681526020019250505060606040518083038186803b15801561081557600080fd5b505afa158015610829573d6000803e3d6000fd5b505050506040513d606081101561083f57600080fd5b81019080805190602001909291908051906020019092919080519060200190929190505050925092509250826108c0576040517f08c379a0000000000000000000000000000000000000000000000000000000008152600401808060200182810382526038815260200180612c2f6038913960400191505060405180910390fd5b60006108d5856108d085856122d8565b6122fb565b905060006108f6670de0b6b3a76400006108f1610b1b866122fb565b612332565b9050610902828261234b565b915061091682670de0b6b3a7640000612332565b915081610942308973ffffffffffffffffffffffffffffffffffffffff1661236290919063ffffffff16565b1015610999576040517f08c379a0000000000000000000000000000000000000000000000000000000008152600401808060200182810382526029815260200180612bdb6029913960400191505060405180910390fd5b6109c433838973ffffffffffffffffffffffffffffffffffffffff1661243c9092919063ffffffff16565b503373ffffffffffffffffffffffffffffffffffffffff167f63fc95e096498c7428d8d3556c37f0fd23bedca19255a08cf4918b338d39b968600360009054906101000a900473ffffffffffffffffffffffffffffffffffffffff168885604051808473ffffffffffffffffffffffffffffffffffffffff168152602001838152602001828152602001935050505060405180910390a25050505050610d87565b6000806000600260009054906101000a900473ffffffffffffffffffffffffffffffffffffffff1673ffffffffffffffffffffffffffffffffffffffff16633a7a2a06600360009054906101000a900473ffffffffffffffffffffffffffffffffffffffff16876040518363ffffffff1660e01b8152600401808373ffffffffffffffffffffffffffffffffffffffff1681526020018273ffffffffffffffffffffffffffffffffffffffff1681526020019250505060606040518083038186803b158015610b3357600080fd5b505afa158015610b47573d6000803e3d6000fd5b505050506040513d6060811015610b5d57600080fd5b8101908080519060200190929190805190602001909291908051906020019092919050505092509250925082610bde576040517f08c379a000000000000000000000000000000000000000000000000000000000815260040180806020018281038252602d815260200180612bae602d913960400191505060405180910390fd5b6000610bf385610bee85856122d8565b6122fb565b90506000610c1c670de0b6b3a7640000610c17670de0b6b3a7640000610b1b6122fb565b612332565b9050610c28828261234b565b9150610c3c82670de0b6b3a7640000612332565b915081610c68308973ffffffffffffffffffffffffffffffffffffffff1661236290919063ffffffff16565b1015610cbf576040517f08c379a0000000000000000000000000000000000000000000000000000000008152600401808060200182810382526029815260200180612bdb6029913960400191505060405180910390fd5b610cea33838973ffffffffffffffffffffffffffffffffffffffff1661243c9092919063ffffffff16565b503373ffffffffffffffffffffffffffffffffffffffff167f63fc95e096498c7428d8d3556c37f0fd23bedca19255a08cf4918b338d39b968600360009054906101000a900473ffffffffffffffffffffffffffffffffffffffff168885604051808473ffffffffffffffffffffffffffffffffffffffff168152602001838152602001828152602001935050505060405180910390a250505050505b5050565b610d93610e49565b610e05576040517f08c379a00000000000000000000000000000000000000000000000000000000081526004018080602001828103825260168152602001807f596f7520617265206e6f7420746865206f776e65722e0000000000000000000081525060200191505060405180910390fd5b80600260006101000a81548173ffffffffffffffffffffffffffffffffffffffff021916908373ffffffffffffffffffffffffffffffffffffffff16021790555050565b60008060009054906101000a900473ffffffffffffffffffffffffffffffffffffffff1673ffffffffffffffffffffffffffffffffffffffff163373ffffffffffffffffffffffffffffffffffffffff1614905090565b610ea8610e49565b610f1a576040517f08c379a00000000000000000000000000000000000000000000000000000000081526004018080602001828103825260168152602001807f596f7520617265206e6f7420746865206f776e65722e0000000000000000000081525060200191505060405180910390fd5b80600360006101000a81548173ffffffffffffffffffffffffffffffffffffffff021916908373ffffffffffffffffffffffffffffffffffffffff16021790555050565b600080600080600260009054906101000a900473ffffffffffffffffffffffffffffffffffffffff1673ffffffffffffffffffffffffffffffffffffffff16633a7a2a0688886040518363ffffffff1660e01b8152600401808373ffffffffffffffffffffffffffffffffffffffff1681526020018273ffffffffffffffffffffffffffffffffffffffff1681526020019250505060606040518083038186803b15801561100b57600080fd5b505afa15801561101f573d6000803e3d6000fd5b505050506040513d606081101561103557600080fd5b81019080805190602001909291908051906020019092919080519060200190929190505050925092509250826110b6576040517f08c379a0000000000000000000000000000000000000000000000000000000008152600401808060200182810382526038815260200180612c2f6038913960400191505060405180910390fd5b6110c9856110c484846122d8565b6122fb565b93505050509392505050565b6110fe818373ffffffffffffffffffffffffffffffffffffffff166124e490919063ffffffff16565b73eeeeeeeeeeeeeeeeeeeeeeeeeeeeeeeeeeeeeeee73ffffffffffffffffffffffffffffffffffffffff168273ffffffffffffffffffffffffffffffffffffffff16141561142c5760003414156111a0576040517f08c379a0000000000000000000000000000000000000000000000000000000008152600401808060200182810382526024815260200180612c676024913960400191505060405180910390fd5b60006111b6670de0b6b3a7640000610b1b612332565b90506111c2828261234b565b915060006111f784600360009054906101000a900473ffffffffffffffffffffffffffffffffffffffff1685600a60006104f6565b50905061120c81670de0b6b3a7640000612332565b90508061125a30600360009054906101000a900473ffffffffffffffffffffffffffffffffffffffff1673ffffffffffffffffffffffffffffffffffffffff1661236290919063ffffffff16565b10156112ce576040517f08c379a000000000000000000000000000000000000000000000000000000000815260040180806020018281038252601e8152602001807f4e6f7420656e6f75676820746f6b656e7320696e2054726561737572792e000081525060200191505060405180910390fd5b61131b3382600360009054906101000a900473ffffffffffffffffffffffffffffffffffffffff1673ffffffffffffffffffffffffffffffffffffffff1661243c9092919063ffffffff16565b5061136e600160008673ffffffffffffffffffffffffffffffffffffffff1673ffffffffffffffffffffffffffffffffffffffff16815260200190815260200160002054611369858561259a565b61259a565b600160008673ffffffffffffffffffffffffffffffffffffffff1673ffffffffffffffffffffffffffffffffffffffff168152602001908152602001600020819055503373ffffffffffffffffffffffffffffffffffffffff167f63fc95e096498c7428d8d3556c37f0fd23bedca19255a08cf4918b338d39b968858584604051808473ffffffffffffffffffffffffffffffffffffffff168152602001838152602001828152602001935050505060405180910390a250506117fd565b6000806000600260009054906101000a900473ffffffffffffffffffffffffffffffffffffffff1673ffffffffffffffffffffffffffffffffffffffff16633a7a2a0686600360009054906101000a900473ffffffffffffffffffffffffffffffffffffffff166040518363ffffffff1660e01b8152600401808373ffffffffffffffffffffffffffffffffffffffff1681526020018273ffffffffffffffffffffffffffffffffffffffff1681526020019250505060606040518083038186803b1580156114fa57600080fd5b505afa15801561150e573d6000803e3d6000fd5b505050506040513d606081101561152457600080fd5b81019080805190602001909291908051906020019092919080519060200190929190505050925092509250826115a5576040517f08c379a0000000000000000000000000000000000000000000000000000000008152600401808060200182810382526038815260200180612c2f6038913960400191505060405180910390fd5b60006115c4670de0b6b3a76400006115bf610b1b866122fb565b612332565b90506115d0858261234b565b945060006115e7866115e286866122d8565b6122fb565b90506115fb81670de0b6b3a7640000612332565b90508061164930600360009054906101000a900473ffffffffffffffffffffffffffffffffffffffff1673ffffffffffffffffffffffffffffffffffffffff1661236290919063ffffffff16565b10156116a0576040517f08c379a0000000000000000000000000000000000000000000000000000000008152600401808060200182810382526029815260200180612bdb6029913960400191505060405180910390fd5b6116ed3382600360009054906101000a900473ffffffffffffffffffffffffffffffffffffffff1673ffffffffffffffffffffffffffffffffffffffff1661243c9092919063ffffffff16565b50611740600160008973ffffffffffffffffffffffffffffffffffffffff1673ffffffffffffffffffffffffffffffffffffffff1681526020019081526020016000205461173b888561259a565b61259a565b600160008973ffffffffffffffffffffffffffffffffffffffff1673ffffffffffffffffffffffffffffffffffffffff168152602001908152602001600020819055503373ffffffffffffffffffffffffffffffffffffffff167f63fc95e096498c7428d8d3556c37f0fd23bedca19255a08cf4918b338d39b968888884604051808473ffffffffffffffffffffffffffffffffffffffff168152602001838152602001828152602001935050505060405180910390a250505050505b5050565b61182a818473ffffffffffffffffffffffffffffffffffffffff166124e490919063ffffffff16565b73eeeeeeeeeeeeeeeeeeeeeeeeeeeeeeeeeeeeeeee73ffffffffffffffffffffffffffffffffffffffff168373ffffffffffffffffffffffffffffffffffffffff161415611c465760003414156118cc576040517f08c379a0000000000000000000000000000000000000000000000000000000008152600401808060200182810382526024815260200180612c676024913960400191505060405180910390fd5b60006118e2670de0b6b3a7640000610b1b612332565b90506118ee828261234b565b91506000806000600260009054906101000a900473ffffffffffffffffffffffffffffffffffffffff1673ffffffffffffffffffffffffffffffffffffffff16633a7a2a0688886040518363ffffffff1660e01b8152600401808373ffffffffffffffffffffffffffffffffffffffff1681526020018273ffffffffffffffffffffffffffffffffffffffff1681526020019250505060606040518083038186803b15801561199c57600080fd5b505afa1580156119b0573d6000803e3d6000fd5b505050506040513d60608110156119c657600080fd5b8101908080519060200190929190805190602001909291908051906020019092919050505092509250925082611a47576040517f08c379a0000000000000000000000000000000000000000000000000000000008152600401808060200182810382526038815260200180612c2f6038913960400191505060405180910390fd5b6000611a5c86611a5785856122d8565b6122fb565b9050611a7081670de0b6b3a7640000612332565b905080611a9c308973ffffffffffffffffffffffffffffffffffffffff1661236290919063ffffffff16565b1015611b10576040517f08c379a000000000000000000000000000000000000000000000000000000000815260040180806020018281038252601e8152602001807f4e6f7420656e6f75676820746f6b656e7320696e2054726561737572792e000081525060200191505060405180910390fd5b611b3b33828973ffffffffffffffffffffffffffffffffffffffff1661243c9092919063ffffffff16565b50611b85600160008a73ffffffffffffffffffffffffffffffffffffffff1673ffffffffffffffffffffffffffffffffffffffff168152602001908152602001600020548761259a565b600160008a73ffffffffffffffffffffffffffffffffffffffff1673ffffffffffffffffffffffffffffffffffffffff168152602001908152602001600020819055503373ffffffffffffffffffffffffffffffffffffffff167f63fc95e096498c7428d8d3556c37f0fd23bedca19255a08cf4918b338d39b968898884604051808473ffffffffffffffffffffffffffffffffffffffff168152602001838152602001828152602001935050505060405180910390a25050505050611fb1565b6000806000600260009054906101000a900473ffffffffffffffffffffffffffffffffffffffff1673ffffffffffffffffffffffffffffffffffffffff16633a7a2a0687876040518363ffffffff1660e01b8152600401808373ffffffffffffffffffffffffffffffffffffffff1681526020018273ffffffffffffffffffffffffffffffffffffffff1681526020019250505060606040518083038186803b158015611cf257600080fd5b505afa158015611d06573d6000803e3d6000fd5b505050506040513d6060811015611d1c57600080fd5b8101908080519060200190929190805190602001909291908051906020019092919050505092509250925082611d9d576040517f08c379a0000000000000000000000000000000000000000000000000000000008152600401808060200182810382526038815260200180612c2f6038913960400191505060405180910390fd5b6000611dbc670de0b6b3a7640000611db7610b1b866122fb565b612332565b9050611dc8858261234b565b94506000611ddf86611dda86866122d8565b6122fb565b9050611df381670de0b6b3a7640000612332565b905080611e1f308973ffffffffffffffffffffffffffffffffffffffff1661236290919063ffffffff16565b1015611e76576040517f08c379a0000000000000000000000000000000000000000000000000000000008152600401808060200182810382526029815260200180612bdb6029913960400191505060405180910390fd5b611ea133828973ffffffffffffffffffffffffffffffffffffffff1661243c9092919063ffffffff16565b50611ef4600160008a73ffffffffffffffffffffffffffffffffffffffff1673ffffffffffffffffffffffffffffffffffffffff16815260200190815260200160002054611eef888561259a565b61259a565b600160008a73ffffffffffffffffffffffffffffffffffffffff1673ffffffffffffffffffffffffffffffffffffffff168152602001908152602001600020819055503373ffffffffffffffffffffffffffffffffffffffff167f63fc95e096498c7428d8d3556c37f0fd23bedca19255a08cf4918b338d39b968898884604051808473ffffffffffffffffffffffffffffffffffffffff168152602001838152602001828152602001935050505060405180910390a250505050505b505050565b60008054906101000a900473ffffffffffffffffffffffffffffffffffffffff1681565b611fe2610e49565b612054576040517f08c379a00000000000000000000000000000000000000000000000000000000081526004018080602001828103825260168152602001807f596f7520617265206e6f7420746865206f776e65722e0000000000000000000081525060200191505060405180910390fd5b600073ffffffffffffffffffffffffffffffffffffffff168173ffffffffffffffffffffffffffffffffffffffff16141561208e57600080fd5b8073ffffffffffffffffffffffffffffffffffffffff167f8be0079c531659141344cd1fd0a4f28419497f9722a3daafe3b4186f6b6457e060008054906101000a900473ffffffffffffffffffffffffffffffffffffffff16604051808273ffffffffffffffffffffffffffffffffffffffff16815260200191505060405180910390a250565b6000811415612123576122d2565b61212c846125b6565b156122a3573373ffffffffffffffffffffffffffffffffffffffff168373ffffffffffffffffffffffffffffffffffffffff1614801561216c5750803410155b6121c1576040517f08c379a000000000000000000000000000000000000000000000000000000000815260040180806020018281038252602b815260200180612c04602b913960400191505060405180910390fd5b3073ffffffffffffffffffffffffffffffffffffffff168273ffffffffffffffffffffffffffffffffffffffff161461223c578173ffffffffffffffffffffffffffffffffffffffff166108fc829081150290604051600060405180830381858888f1935050505015801561223a573d6000803e3d6000fd5b505b8034111561229e573373ffffffffffffffffffffffffffffffffffffffff166108fc612271833461234b90919063ffffffff16565b9081150290604051600060405180830381858888f1935050505015801561229c573d6000803e3d6000fd5b505b6122d1565b6122d08383838773ffffffffffffffffffffffffffffffffffffffff16612696909392919063ffffffff16565b5b5b50505050565b60008082670de0b6b3a76400008502816122ee57fe5b0490508091505092915050565b60008083141561230e576000905061232c565b600082840290508284828161231f57fe5b041461232757fe5b809150505b92915050565b60008082848161233e57fe5b0490508091505092915050565b60008282111561235757fe5b818303905092915050565b600061236d836125b6565b15612391578173ffffffffffffffffffffffffffffffffffffffff16319050612436565b8273ffffffffffffffffffffffffffffffffffffffff166370a08231836040518263ffffffff1660e01b8152600401808273ffffffffffffffffffffffffffffffffffffffff16815260200191505060206040518083038186803b1580156123f857600080fd5b505afa15801561240c573d6000803e3d6000fd5b505050506040513d602081101561242257600080fd5b810190808051906020019092919050505090505b92915050565b60008082141561244f57600190506124dd565b612458846125b6565b156124ad578273ffffffffffffffffffffffffffffffffffffffff166108fc839081150290604051600060405180830381858888f193505050501580156124a3573d6000803e3d6000fd5b50600190506124dd565b6124d883838673ffffffffffffffffffffffffffffffffffffffff166127579092919063ffffffff16565b600190505b9392505050565b60008114156124f257612596565b6124fb826125b6565b156125675780341115612562573373ffffffffffffffffffffffffffffffffffffffff166108fc612535833461234b90919063ffffffff16565b9081150290604051600060405180830381858888f19350505050158015612560573d6000803e3d6000fd5b505b612595565b6125943330838573ffffffffffffffffffffffffffffffffffffffff16612696909392919063ffffffff16565b5b5b5050565b6000808284019050838110156125ac57fe5b8091505092915050565b600073c02aaa39b223fe8d0a0e5c4f27ead9083c756cc273ffffffffffffffffffffffffffffffffffffffff168273ffffffffffffffffffffffffffffffffffffffff161480612645575073eeeeeeeeeeeeeeeeeeeeeeeeeeeeeeeeeeeeeeee73ffffffffffffffffffffffffffffffffffffffff168273ffffffffffffffffffffffffffffffffffffffff16145b8061268f575073c778417e063141139fce010982780140aa0cd5ab73ffffffffffffffffffffffffffffffffffffffff168273ffffffffffffffffffffffffffffffffffffffff16145b9050919050565b612751846323b872dd60e01b858585604051602401808473ffffffffffffffffffffffffffffffffffffffff1681526020018373ffffffffffffffffffffffffffffffffffffffff1681526020018281526020019350505050604051602081830303815290604052907bffffffffffffffffffffffffffffffffffffffffffffffffffffffff19166020820180517bffffffffffffffffffffffffffffffffffffffffffffffffffffffff83818316178352505050506127f9565b50505050565b6127f48363a9059cbb60e01b8484604051602401808373ffffffffffffffffffffffffffffffffffffffff16815260200182815260200192505050604051602081830303815290604052907bffffffffffffffffffffffffffffffffffffffffffffffffffffffff19166020820180517bffffffffffffffffffffffffffffffffffffffffffffffffffffffff83818316178352505050506127f9565b505050565b600061285b826040518060400160405280602081526020017f5361666545524332303a206c6f772d6c6576656c2063616c6c206661696c65648152508573ffffffffffffffffffffffffffffffffffffffff166128e89092919063ffffffff16565b90506000815111156128e35780806020019051602081101561287c57600080fd5b81019080805190602001909291905050506128e2576040517f08c379a000000000000000000000000000000000000000000000000000000000815260040180806020018281038252602a815260200180612c8b602a913960400191505060405180910390fd5b5b505050565b60606128f78484600085612900565b90509392505050565b60608247101561295b576040517f08c379a0000000000000000000000000000000000000000000000000000000008152600401808060200182810382526026815260200180612b886026913960400191505060405180910390fd5b61296485612aa8565b6129d6576040517f08c379a000000000000000000000000000000000000000000000000000000000815260040180806020018281038252601d8152602001807f416464726573733a2063616c6c20746f206e6f6e2d636f6e747261637400000081525060200191505060405180910390fd5b6000808673ffffffffffffffffffffffffffffffffffffffff1685876040518082805190602001908083835b60208310612a255780518252602082019150602081019050602083039250612a02565b6001836020036101000a03801982511681845116808217855250505050505090500191505060006040518083038185875af1925050503d8060008114612a87576040519150601f19603f3d011682016040523d82523d6000602084013e612a8c565b606091505b5091509150612a9c828286612abb565b92505050949350505050565b600080823b905060008111915050919050565b60608315612acb57829050612b80565b600083511115612ade5782518084602001fd5b816040517f08c379a00000000000000000000000000000000000000000000000000000000081526004018080602001828103825283818151815260200191508051906020019080838360005b83811015612b45578082015181840152602081019050612b2a565b50505050905090810190601f168015612b725780820380516001836020036101000a031916815260200191505b509250505060405180910390fd5b939250505056fe416464726573733a20696e73756666696369656e742062616c616e636520666f722063616c6c4f6e65206f662074686520746f6b656e73206973206e6f74206f6e207468652074726164696e67206c6973742e4368726f6d69756d3a3a204e6f7420656e6f75676820746f6b656e7320696e2054726561737572792e57726f6e6720757365616765206f66204554482e756e6976657273616c5472616e7366657246726f6d28294368726f6d69756d3a3a204f6e65206f662074686520746f6b656e73206973206e6f74206f6e207468652074726164696e67206c6973742e4368726f6d69756d3a3a206d73672e76616c75652063616e206e6f7420657175616c20305361666545524332303a204552433230206f7065726174696f6e20646964206e6f742073756363656564a26469706673582212209f4dea8ecafb844a2e1dda08fe75b911fa42ef3845f9be4effc05f7a1afcdd8764736f6c63430007060033",
  "immutableReferences": {},
  "source": "// SPDX-License-Identifier: MIT\npragma solidity >=0.4.22 <0.9.0;\n\nimport \"./interfaces/UniversalERC20.sol\";\nimport './interfaces/Ownable.sol';\nimport './ExchangeOracle.sol';\nimport './interfaces/IOneSplit.sol';\n\ncontract Chromium is Ownable {\n    using UniversalERC20 for IERC20;\n\n    // used to keep track of tokens in contract\n    mapping(IERC20 => uint) public liquidityAmount;\n\n    // eth contract address\n    IERC20 private constant ETH_ADDRESS = IERC20(0xEeeeeEeeeEeEeeEeEeEeeEEEeeeeEeeeeeeeEEeE);\n    IOneSplit private constant oneSplitImpl = IOneSplit(0xc3037b2A1a9E9268025FF6d45Fe7095436446D52);\n\n    // initializing objects\n    ExchangeOracle oracle;\n    IERC20 cbltToken;\n\n    // emits when chromium is used\n    event ChromiumTrade(address indexed _from, address _fromToken, uint256 _fromAmount, uint _cbltAmount);\n\n    /**\n     * pass in the oracle contract so that it can pull info from it\n     */\n    constructor(address _oracle, address _cblt_token) {\n        oracle = ExchangeOracle(_oracle);\n        cbltToken = IERC20(_cblt_token);\n    }\n\n    /** this sets the treasury, and oracle */\n    function setOracle(address _oracle) external onlyOwner {\n        oracle = ExchangeOracle(_oracle);\n    }\n\n    // sets CBLT token\n    function setCbltToken(address _cblt) external onlyOwner {\n        cbltToken = IERC20(_cblt);\n    }\n\n    /// @param fromToken (IERC20) Address of token or `address(0)` for Ether\n    /// @param destToken (IERC20) Address of token or `address(0)` for Ether\n    /// @param amount (uint256) Amount for `fromToken`\n    /// @param parts (uint256) Number of pieces source volume could be splitted,\n    /// works like granularity, higly affects gas usage. Should be called offchain,\n    /// but could be called onchain if user swaps not his own funds, but this is still considered as not safe.\n    /// @param featureFlags (uint256) Flags for enabling and disabling some features, default 0\n    function getExpectedReturn(\n        IERC20 fromToken,\n        IERC20 destToken,\n        uint256 amount,\n        uint256 parts,\n        uint256 featureFlags // See contants in IOneSplit.sol\n    )\n    public\n    view\n    returns(\n        uint256 returnAmount,\n        uint256[] memory distribution\n    )\n    {\n        return oneSplitImpl.getExpectedReturn(\n            fromToken,\n            destToken,\n            amount,\n            parts,\n            featureFlags\n        );\n    }\n\n    /************ chromium functions ************/\n    /*\n     * @dev this function will get the exchagne rate for the token being exchanged for cblt token\n     * it will call on the oracle to make the calculation. the returnAmount is going to be\n     * three times larger than the actual amount (so that we can get decimals) which means the returnAmount\n     * will need to be divided by 1000 by the frontend to get the correct amount that will be swapped\n    */\n    function getCbltExchangeRate(\n        IERC20 fromToken,\n        IERC20 destToken,\n        uint256 amount\n    )\n    public\n    view\n    returns (uint returnAmount)\n    {\n        (bool possibleTrade, uint256 sellTokenValue, uint256 buyTokenValue) = oracle.priceOfPair(address(fromToken), address(destToken));\n        require(possibleTrade, \"Chromium:: One of the tokens is not on the trading list.\");\n        returnAmount = SafeMath.mul(amount,\n            SafeMath.findRate(sellTokenValue, buyTokenValue)\n        );\n\n    }\n\n    /**\n     * @dev this function will swap cblt tokens for tokens that are allowed\n    */\n    function swapForCblt(\n        IERC20 fromToken,\n        uint256 amount\n    )\n    external\n    payable\n    {\n        fromToken.universalTransferFromSenderToThis(amount);\n\n        if (fromToken == ETH_ADDRESS) {\n            require(msg.value != 0, \"Chromium:: msg.value can not equal 0\");\n            uint256 usdFee =\n            SafeMath.div(\n                1000000000000000000,\n                2843\n            );\n            amount = SafeMath.sub(amount, usdFee);\n\n            // (bool possibleTrade, uint256 sellTokenValue, uint256 buyTokenValue) = oracle.priceOfPair(address(fromToken), address(cbltToken));\n            // require(possibleTrade, \"Chromium:: One of the tokens is not on the trading list.\");\n            // uint returnAmount = SafeMath.mul(amount,\n            //     SafeMath.findRate(sellTokenValue, buyTokenValue)\n            // );\n\n            (uint returnAmount, ) = getExpectedReturn(fromToken, cbltToken, amount, 10, 0);\n\n            returnAmount = SafeMath.div(returnAmount, (10**18));\n            require(cbltToken.universalBalanceOf(address(this)) >= returnAmount, \"Not enough tokens in Treasury.\");\n\n            cbltToken.universalTransfer(msg.sender, returnAmount);\n            liquidityAmount[fromToken] = SafeMath.add(liquidityAmount[fromToken], SafeMath.add(amount, usdFee));\n            emit ChromiumTrade(msg.sender, address(fromToken), amount, returnAmount);\n        } else {\n\n            (bool possibleTrade, uint256 sellTokenValue, uint256 buyTokenValue) = oracle.priceOfPair(address(fromToken), address(cbltToken));\n            require(possibleTrade, \"Chromium:: One of the tokens is not on the trading list.\");\n            uint256 usdFee =\n            SafeMath.div(\n                1000000000000000000,\n                SafeMath.mul(2843, sellTokenValue)\n            );\n            amount = SafeMath.sub(amount, usdFee);\n\n            uint returnAmount = SafeMath.mul(amount,\n                SafeMath.findRate(sellTokenValue, buyTokenValue)\n            );\n\n            returnAmount = SafeMath.div(returnAmount, (10**18));\n            require(cbltToken.universalBalanceOf(address(this)) >= returnAmount, \"Chromium:: Not enough tokens in Treasury.\");\n\n            cbltToken.universalTransfer(msg.sender, returnAmount);\n            liquidityAmount[fromToken] = SafeMath.add(liquidityAmount[fromToken], SafeMath.add(amount, usdFee));\n            emit ChromiumTrade(msg.sender, address(fromToken), amount, returnAmount);\n        }\n\n    }\n\n    function swapCbltForToken(\n        IERC20 destToken,\n        uint amountOfCblt\n    )\n    external\n    payable\n    {\n        cbltToken.universalTransferFrom(msg.sender, address(this), amountOfCblt);\n\n        if (destToken == ETH_ADDRESS) {\n            (bool possibleTrade, uint256 sellTokenValue, uint256 buyTokenValue) = oracle.priceOfPair(address(cbltToken), address(destToken));\n            require(possibleTrade, \"Chromium:: One of the tokens is not on the trading list.\");\n            uint returnAmount = SafeMath.mul(amountOfCblt,\n                SafeMath.findRate(sellTokenValue, buyTokenValue)\n            );\n\n            uint256 usdFee =\n            SafeMath.div(\n                1000000000000000000,\n                SafeMath.mul(2843, buyTokenValue)\n            );\n\n            returnAmount = SafeMath.sub(returnAmount, usdFee);\n            returnAmount = SafeMath.div(returnAmount, (10**18));\n            require(destToken.universalBalanceOf(address(this)) >= returnAmount, \"Chromium:: Not enough tokens in Treasury.\");\n\n            destToken.universalTransfer(msg.sender, returnAmount);\n            emit ChromiumTrade(msg.sender, address(cbltToken), amountOfCblt, returnAmount);\n        } else {\n\n            (bool possibleTrade, uint256 sellTokenValue, uint256 buyTokenValue) = oracle.priceOfPair(address(cbltToken), address(destToken));\n            require(possibleTrade, \"One of the tokens is not on the trading list.\");\n            uint returnAmount = SafeMath.mul(amountOfCblt,\n                SafeMath.findRate(sellTokenValue, buyTokenValue)\n            );\n\n            uint256 usdFee =\n            SafeMath.div(\n                1000000000000000000,\n                SafeMath.mul(1000000000000000000, 2843)\n            );\n\n            returnAmount = SafeMath.sub(returnAmount, usdFee);\n            returnAmount = SafeMath.div(returnAmount, (10**18));\n\n            require(destToken.universalBalanceOf(address(this)) >= returnAmount, \"Chromium:: Not enough tokens in Treasury.\");\n            destToken.universalTransfer(msg.sender, returnAmount);\n\n            emit ChromiumTrade(msg.sender, address(cbltToken), amountOfCblt, returnAmount);\n        }\n    }\n\n    function swapTokenForToken(IERC20 fromToken, IERC20 destToken, uint amount)\n    external\n    payable\n    {\n        fromToken.universalTransferFromSenderToThis(amount);\n\n        if (fromToken == ETH_ADDRESS) {\n            require(msg.value != 0, \"Chromium:: msg.value can not equal 0\");\n            uint256 usdFee =\n            SafeMath.div(\n                1000000000000000000,\n                2843\n            );\n            amount = SafeMath.sub(amount, usdFee);\n\n            (bool possibleTrade, uint256 sellTokenValue, uint256 buyTokenValue) = oracle.priceOfPair(address(fromToken), address(destToken));\n            require(possibleTrade, \"Chromium:: One of the tokens is not on the trading list.\");\n            uint returnAmount = SafeMath.mul(amount,\n                SafeMath.findRate(sellTokenValue, buyTokenValue)\n            );\n\n            returnAmount = SafeMath.div(returnAmount, (10**18));\n            require(destToken.universalBalanceOf(address(this)) >= returnAmount, \"Not enough tokens in Treasury.\");\n\n            destToken.universalTransfer(msg.sender, returnAmount);\n            liquidityAmount[fromToken] = SafeMath.add(liquidityAmount[fromToken], amount);\n            emit ChromiumTrade(msg.sender, address(fromToken), amount, returnAmount);\n        } else {\n\n            (bool possibleTrade, uint256 sellTokenValue, uint256 buyTokenValue) = oracle.priceOfPair(address(fromToken), address(destToken));\n            require(possibleTrade, \"Chromium:: One of the tokens is not on the trading list.\");\n            uint256 usdFee =\n            SafeMath.div(\n                1000000000000000000,\n                SafeMath.mul(2843, sellTokenValue)\n            );\n            amount = SafeMath.sub(amount, usdFee);\n\n            uint returnAmount = SafeMath.mul(amount,\n                SafeMath.findRate(sellTokenValue, buyTokenValue)\n            );\n\n            returnAmount = SafeMath.div(returnAmount, (10**18));\n            require(destToken.universalBalanceOf(address(this)) >= returnAmount, \"Chromium:: Not enough tokens in Treasury.\");\n\n            destToken.universalTransfer(msg.sender, returnAmount);\n            liquidityAmount[fromToken] = SafeMath.add(liquidityAmount[fromToken], SafeMath.add(amount, usdFee));\n            emit ChromiumTrade(msg.sender, address(fromToken), amount, returnAmount);\n        }\n\n    }\n\n    // fallback function\n    receive() external payable {}\n}\n",
  "sourcePath": "/Users/hugomartinez/WebstormProjects/TungstenGroupProject1/contracts/Chromium.sol",
  "compiler": {
    "name": "solc",
    "version": "0.7.6+commit.7338295f.Emscripten.clang"
  },
  "schemaVersion": "3.3.4",
  "updatedAt": "2021-05-27T12:02:57.570Z",
  "networkType": "ethereum",
  "devdoc": {
    "kind": "dev",
    "methods": {
      "getExpectedReturn(address,address,uint256,uint256,uint256)": {
        "params": {
          "amount": "(uint256) Amount for `fromToken`",
          "destToken": "(IERC20) Address of token or `address(0)` for Ether",
          "featureFlags": "(uint256) Flags for enabling and disabling some features, default 0",
          "fromToken": "(IERC20) Address of token or `address(0)` for Ether",
          "parts": "(uint256) Number of pieces source volume could be splitted, works like granularity, higly affects gas usage. Should be called offchain, but could be called onchain if user swaps not his own funds, but this is still considered as not safe."
        }
      },
      "swapForCblt(address,uint256)": {
        "details": "this function will swap cblt tokens for tokens that are allowed"
      }
    },
    "version": 1
  },
  "userdoc": {
    "kind": "user",
    "methods": {
      "constructor": {
        "notice": "pass in the oracle contract so that it can pull info from it"
      },
      "setOracle(address)": {
        "notice": "this sets the treasury, and oracle "
      }
    },
    "version": 1
  }
}